:040000008A151F2915
:10000800FF00030E8301DA000A08DB008A0170088A
:10001800A5007B08A4007C08A3007D08A2000B1D96
:100028005E280B11DC308E000B308F00C40A0319D8
:10003800C50AA60A0319A70A0130AA000030AB00B6
:100048004508753A031D2A2830304406031D3F2809
:100058000611C401C50186153D30FB00E130FC00E6
:100068003F30FD00FD0B3628FC0B3628FB0B3628ED
:100078000000000086110130A8000030A900270800
:10008800753A031D492830302606031D5E2886125E
:10009800A601A70106163D30FB00E130FC003F3009
:1000A800FD00FD0B5528FC0B5528FB0B55280000BF
:1000B800000006122508F0002408FB002308FC00B5
:1000C8002208FD005B088A005A0E8300FF0E7F0E8F
:0200D80009001D
:0E00DA00213083120313FD00FD0B7128080076
:1000E8000F3083120313FC004730FD00FD0B7A2804
:0A00F800FC0B7A280000000008004D
:06010200000000000800EF
:0E010800F201F101F001F801F30100300800EE
:100116007B15FB1F95280130F300F201F101F00178
:08012600FA0DF20CFF30080095
:10012E000E3083120313FD00FD0B9B280000080008
:10013E00FB14FB1FA928FF30F300F200F100F000C2
:08014E00FA0DF20CFF3008006D
:1001560083160313A01BB22883128713B4288312B5
:1001660087178316201BBA2883120713BC2883120D
:1001760007178316A01AC22883128712C42883126F
:1001860087168316201ACA2883120712CC288312D0
:1001960007165618D0280715D1280711871581206C
:1001A60087118316A019DA2883128713DC28831295
:1001B600871783162019E22883120713E42883126F
:1001C60007178316A018EA2883128712EC288312D1
:1001D600871683162018F22883120712F428831232
:1001E60007165618F8280715F928071187158120CC
:0E01F6008711561C0029742001296D20080075
:08020400FA1FF213003008009C
:10020C008312031356106D088316A000AB205614EE
:02021C000800D8
:0E021E00831203134F088A004E088200080066
:10022C007B14FB1F2129F201FA1FFF30F200F100B1
:0A023C00F000FA0DF20CFF3008008C
:10024600A1017208031D38297108F2007008F10037
:10025600F001A1157208031D38297108F200F10199
:10026600A11121167208031946292108F302031D5C
:10027600031C4A290310F21B4E29F00DF10DF20D55
:10028600F30B3E294A290130FC0084205129023013
:0E029600FC008B2051290430FC0002210800DE
:1002A40083120313FB01FA01F901F801A001730D94
:1002B400F80D7408F8027508031C750FF902760826
:1002C400031C760FFA027708031C770FFB02000168
:1002D400031C0130A002F30D0730FC00730DF80D70
:1002E400F90DFA0DFB0DA00D7408731C8B29F8028F
:1002F4007508031C750FF9027608031C760FFA02C1
:100304007708031C770FFB020001031C0130A002D5
:100314009C29F80775080318750FF9077608031860
:10032400760FFA0777080318770FFB070001031805
:100334000130A007F30DFC0B7029720DF80DF90DB7
:10034400FA0DFB0DA00D7408731CBA29F802750888
:10035400031C750FF9027608031C760FFA0277085E
:10036400031C770FFB020001031C0130A002CB2900
:10037400F80775080318750FF90776080318760F40
:10038400FA0777080318770FFB07000103180130F9
:10039400A007F20D0730FC00720DF80DF90DFA0DEF
:1003A400FB0DA00D7408721CE929F8027508031CE2
:1003B400750FF9027608031C760FFA027708031CFE
:1003C400770FFB020001031C0130A002FA29F80791
:1003D40075080318750FF90776080318760FFA07DE
:1003E40077080318770FFB07000103180130A007F3
:1003F400F20DFC0BCE29710DF80DF90DFA0DFB0D64
:10040400A00D7408721C182AF8027508031C750FD5
:10041400F9027608031C760FFA027708031C770F9B
:10042400FB020001031C0130A002292AF807750809
:100434000318750FF90776080318760FFA0777087B
:100444000318770FFB07000103180130A007F10D13
:100454000730FC00710DF80DF90DFA0DFB0DA00D20
:100464007408711C472AF8027508031C750FF902F9
:100474007608031C760FFA027708031C770FFB0239
:100484000001031C0130A002582AF807750803185C
:10049400750FF90776080318760FFA07770803181B
:1004A400770FFB07000103180130A007F10DFC0BC7
:1004B4002C2A700DF80DF90DFA0DFB0DA00D740822
:1004C400711C762AF8027508031C750FF902760868
:1004D400031C760FFA027708031C770FFB02000156
:1004E400031C0130A002872AF80775080318750F4A
:1004F400F90776080318760FFA0777080318770FB9
:10050400FB07000103180130A007F00D0730FC00C1
:10051400700DF80DF90DFA0DFB0DA00D7408701C8B
:10052400A52AF8027508031C750FF9027608031C46
:10053400760FFA027708031C770FFB020001031CF5
:100544000130A002B62AF80775080318750FF907D9
:1005540076080318760FFA0777080318770FFB0756
:10056400000103180130A007F00DFC0B8A2A701853
:10057400C92A7408F80775080318750FF90776086F
:100584000318760FFA0777080318770FFB0708009C
:100594007C18002BFC18D12A7C191F2BCA2AA10114
:1005A4007208031DF12A7108F2007008F10078083E
:1005B400F000F801A1157208031DF12A7108F20078
:1005C4007008F100F001A11121167208031DF12A2F
:1005D4007108F200F101A11572080319132B210807
:1005E400F302031D031C172B0310F21B002BF80D41
:1005F400F00DF10DF20DF30BF72A172B7B1B701C7A
:100604001B2BF81F1B2BF00A0319F10A0319F20A1A
:10061400031D1B2BF20CF10CF00CF30A03191F2B16
:100624001B2B0130FC008420222B0230FC008B2089
:10063400222B0430FC000221222B0830FC009F20D6
:0406440000000800AA
:10064800362B803083120313ED00492BC030ED00A8
:10065800492B9430ED00492BD430ED00492B8030E4
:10066800ED00492B831203136D08013A0319252B5A
:100678006D08023A03192A2B6D08033A03192D2B2A
:100688006D08043A0319302B332B6E03F0006D0804
:10069800F0077008ED00561470088316A000AB2010
:0E06A80056106F088316A000AB2056140800F1
:1006B600831203139F01C0309F042C09F0007008B9
:1006C60083169F051F179F1783126D08F000F00D04
:1006D6007010F00D7010F00D701070089F041F144C
:1006E60097201F151F1D792B0000752B1F101E0844
:1006F600F100F00183161E08F0040030F104080032
:100706008312031372087606A100F801F901730833
:100716007702031CA62B7708FD007308F7007D08F7
:10072600F3007608FD007208F6007D08F2007508F1
:10073600FD007108F5007D08F1007408FD007008E1
:10074600F4007D08F000770803191F2C7208FA00E0
:10075600F217F61777087302F7000319D92B08303A
:100766007702031CCF2BF7007408F9007508F40014
:100776007608F500F60108307702031CCF2BF70048
:100786007408F9007508F400F50108307702031CB7
:10079600CF2B7A08F2001F2C77080319D92B0310E8
:1007A600F60CF50CF40CF90CF70BD22BA11FE62B6B
:1007B600F909F409F509F609F90A0319F40A0319FE
:1007C600F50A0319F60A7908F80774080318740F6E
:1007D600F00775080318750FF10776080318760FEA
:1007E600F207A11BFF2B031C0F2CF20CF10CF00CD3
:1007F600F80CF30F0F2C1B2C0318132CF809F00917
:10080600F109F209F80A0319F00A0319F10A0319A2
:10081600F20A8030FA06172C0130FC00CA22212C7D
:100826000230FC00CA22212C0430FC002321212C9A
:100836000830FC009F20212C0030FC00000008003E
:1008460083120313E901EA01EB01EC01E8016430CC
:10085600680203184C2CED015B230030F200F30014
:1008660083126908F0076A0803186A0FF1076B0814
:1008760003186B0FF2076C0803186C0FF307700868
:10088600E9007108EA007208EB007308EC00E80A58
:100896002A2C6430F400F501F601F7016908F0002E
:1008A6006A08F1006B08F2006C08F3005221080098
:1008B6006D2C803083120313E800802CC030E800D2
:1008C600802C9430E800802CD430E800802C8030D6
:1008D600E800802C831203136808013A03195C2C84
:1008E6006808023A0319612C6808033A0319642C54
:1008F6006808043A0319672C6A2C6903F000680833
:10090600F0077008E80070088316A000AB205610A8
:10091600EB016B086A078400000803199A2C6B0820
:100926006A0784000008ED000621EB0A8C2C561499
:020936000800B7
:10093800831203137008F8007108F0007208F100C0
:100948007308F200F301FB01FC019E30F300FA0189
:080958000230FC00CA22080075
:10096000831203132230FC00F801F901FA01FB01A4
:10097000FC030319E62C0310FB0CFA0CF90CF80C21
:10098000F30CF20CF10CF00C031CB82CFC03031953
:10099000D82C7408F80775080318750FF90776083E
:1009A0000318760FFA0777080318770FFB07BC2C9C
:1009B0007408F80775080318750FF9077608031807
:0E09C000760FFA0777080318770FFB07080079
:1009CE0083120313FB01FC01F80173080319602D58
:1009DE00F2179E30F302F31BF72C0319F72C502D50
:1009EE00F309F30A08307302031C252DF300F80DEA
:1009FE007008F8007108F0007208F100F20108307A
:100A0E007302031C252DF300F80D7008F800710811
:100A1E00F000F10108307302031C252DF300F80DD0
:100A2E007008F800F00108307302031C252DF30046
:100A3E00F80DF8017308031D03102F2D7308031909
:100A4E002F2D0310F20CF10CF00CF80CF30B282DDB
:100A5E007B1B781C3D2D031C3D2DF80A0319F00A53
:100A6E000319F10A0319F20AF21B5D2DFA1F602D0C
:100A7E00F209F109F009F809F80A0319F00A031945
:100A8E00F10A0319F20A602DF201F101F001F801E9
:100A9E00602D7B14FB1F632DF201FA1F632DF200F4
:100AAE00F100F000F800FA0DF20C632D0130FC009D
:100ABE00652D0030FC00652DFF30FC00FC0803198D
:100ACE00692D16217208F3007108F2007008F1000A
:060ADE007808F00008009A
:100AE400403083160313A000AB20EA016A08073CD8
:100AF400031C8E2D6A08A33EF00007300318013E44
:100B0400F1007008CE007108CF000F218A110A127B
:100B1400ED000621EA0A782D02308316A000AB20EE
:0E0B24006808ED006908EE00EF0124230800C8
:100B320083120313FB017308031D77080319F02DB9
:100B420072087606FA007708F3077E30031CAD2D93
:100B5200F3020318F32DB02DF302031CF62D7208D5
:100B6200F8007108FC007008FD00F817F617031072
:100B7200F201F101F0011830A1007D1CCA2D7408A8
:100B8200F00775080318750FF10776080318760F3A
:100B9200F207F20CF10CF00CF80CFC0CFD0C03103B
:100BA200A10BBE2DF21BDA2DF80DF00DF10DF20D99
:100BB200F3037B1B701CEC2DF81FEC2DF00A0319BC
:100BC200F10A0319F20A031DEC2DF20CF10CF00CE0
:100BD200F30A0319F32DFA1FF2130030F82D013036
:100BE2008420F82D02309F20F82D04308B20000045
:020BF2000800F9
:100BF40023247008CA007108CB007208CC00730863
:100C0400CD000530F400F501F601F701B02464309D
:100C1400F400F501F601F701B0247008E40071084E
:100C2400E5007208E6007308E700FF30F4000330C3
:100C3400F500F601F7016408F0006508F1006608A4
:100C4400F2006708F30052217008C6007108C7005B
:100C54007208C8007308C9009C246630F40066302A
:100C6400F5006630F6007F30F70099250030F40077
:100C74000030F5000030F6008430F7008323E724C9
:100C84007008DC007108DD007208DE007308DF0004
:100C94005C08D2005D08D3005E08D4005F08D5006C
:100CA4000A30F400F501F601F7015C08F0005D0874
:100CB400F1005E08F2005F08F30052217008E000C2
:100CC4007108E1007208E2007308E3006008D100D3
:100CD4000A30F400F501F601F7015C08F0005D0844
:100CE400F1005E08F2005F08F30052217808F0007A
:100CF4007908F1007A08F2007B08F3007008D0004C
:100D0400FF30F4000330F500F601F7016408F00049
:100D14006508F1006608F2006708F30052217808BC
:100D2400F0007908F1007A08F2007B08F3000A3039
:100D3400F400F501F601F701B0247008DC00710835
:100D4400DD007208DE007308DF00FF30F4000330BA
:100D5400F500F601F7015C08F0005D08F1005E089B
:100D6400F2005F08F30052217008D800FF30F4004D
:100D74000330F500F601F7015C08F0005D08F100AE
:100D84005E08F2005F08F30052217808F000790849
:100D9400F1007A08F2007B08F3000A30F400F50150
:100DA400F601F701B024FF30F4000330F500F6013A
:100DB400F70152217008D7000230ED000930EE002F
:100DC40030306007EF00242330305007ED00062157
:100DD4002E30ED00062130305807ED00062130306A
:100DE4005707ED0006210230E8000E30E9007225B5
:100DF4000230E8000F30E9003630EA005B240930A5
:100E0400FB001E30FC00E430FD00FD0B072FFC0B43
:0A0E1400072FFB0B072F000008005A
:0A0E1E008312031388150812080060
:0A0E28008312031308168811080056
:080E32008312031308140800E9
:080E3A008312031308100800E5
:080E4200831203138814080059
:080E4A00831203138810080055
:100E520083160313871107110712871207138713CB
:100E62008312871107118713071387120712742041
:100E72007420742087160716871581208711742025
:100E8200871581208711742087158120871174208E
:100E920007128715812087117420871581208711F9
:100EA20087128717871581208711742087130716E9
:100EB20087158120871107128715812087117420D9
:100EC20087158120871107168715812087117420C5
:100ED20007128715812087118717071787160716AC
:0C0EE20087158120871174205614080029
:100EEE000F218A110A128000840ACE0A0319CF0A32
:080EFE00F003031D772F08002B
:100F580026308400203083120313F0008330CE0043
:080F68000730CF0077270800D5
:101000008A1123248A157008CA007108CB0072085F
:10101000CC007308CD000530F400F501F601F701AE
:101020008A11B0248A156430F400F501F601F70145
:101030008A11B0248A157008E4007108E50072086E
:10104000E6007308E700FF30F4000330F500F60116
:10105000F7016408F0006508F1006608F20067080F
:10106000F3008A1152218A157008DC007108DD0036
:101070007208DE007308DF005C08C6005D08C70068
:101080005E08C8005F08C9000A30F400F501F601E7
:10109000F7015C08F0005D08F1005E08F2005F08EF
:1010A000F3008A1152218A157008E0007108E100EE
:1010B0007208E2007308E3006008D1000A30F4000F
:1010C000F501F601F7015C08F0005D08F1005E082B
:1010D000F2005F08F3008A1152218A157808F000A7
:1010E0007908F1007A08F2007B08F3007008D0005C
:1010F000FF30F4000330F500F601F7016408F0005A
:101100006508F1006608F2006708F3008A115221B1
:101110008A157808F0007908F1007A08F2007B0857
:10112000F3000A30F400F501F601F7018A11B0244A
:101130008A157008DC007108DD007208DE00730893
:10114000DF00FF30F4000330F500F601F7015C0822
:10115000F0005D08F1005E08F2005F08F3008A11FC
:1011600052218A157008D800FF30F4000330F500D2
:10117000F601F7015C08F0005D08F1005E08F2007E
:101180005F08F3008A1152218A157808F000790867
:10119000F1007A08F2007B08F3000A30F400F50150
:1011A000F601F7018A11B0248A15FF30F4000330EC
:1011B000F500F601F7018A1152218A157008D7004F
:1011C0000230ED000930EE0030306007EF008A1188
:1011D00024238A1530305007ED008A1106218A1524
:1011E0002E30ED008A1106218A1530305807ED00A7
:1011F0008A1106218A1530305707ED008A11062121
:101200008A150230E8000E30E9008A1172258A152D
:101210000230E8000F30E9002D30EA008A115B242B
:101220008A150930FB001E30FC00E430FD00FD0B88
:0E1230001729FC0B1729FB0B172900000800DB
:10123E008A11AC278A150130831203139F00FF30E9
:10124E00831685008701043088008312850187018B
:10125E000130880003308316860083120611861132
:10126E00061286128A1129278A150C308316A000C1
:10127E008A11AB208A1501308316A0008A11AB208B
:10128E008A153830D9000130E8000330E9005908DA
:10129E00EA008A115B248A152F30D9000230E8004B
:1012AE000130E9005908EA008A115B248A150130E1
:1012BE00831681008B170B178B168312AA01AB01B5
:1012CE00A801A901A601A70108196F2900207229FA
:1012DE008A11FA258A15881A78298A110F278A15F4
:1012EE007B298A1114278A15081B81298A1119272F
:1012FE008A1584298A111D278A15881B8A298A1125
:10130E0021278A158D298A1125278A1506189529D0
:10131E00061581010130AA000030AB0086189D2908
:10132E00861681010130A8000030A90064299E298B
:040F0600003400347F
:040F0A00003400347B
:040F0E000034003477
:020F12000F349A
:040F1400433400342E
:0E0F1800543465346D34703420343D3400346C
:040F26004634003419
:100F2A00543445344D3450344534523441345434B5
:080F3A005534523441340034F7
:040F42000034003443
:100F460006340934063400340034003400340034E6
:02400E004A2F37
:00000001FF
